:0400000080312E28F5
:100008007E14803120007F08CA008B1A0B1D10282F
:1000180085311825803129280B1F29282100111E18
:100028001E282000111E1E2861088A0060080A0088
:10003800803129282100911E29282000911E292875
:100048005F088A005E080A00803120004A08FF0025
:100058007E100900803130288531A1258031E600E5
:100068002030840000308500233085315D258031C3
:10007800A030840000308500243085315D257E1055
:1000880020008431E62C2000C3005B08C6005A0813
:10009800C500C401650844020318632845088400A4
:1000A8004608850000084306031963280630C5077B
:1000B8000030C63D0130F7007708C4074E284508D0
:1000C8008400460885000008813176218031F700D8
:1000D80077082000B6004608F8004508F700013008
:1000E8007707840078080318780A85001200031D32
:1000F800CF284608F8004508F70002307707840043
:1001080078080318780A850012000319BB284608E6
:10011800F8004508F70002307707840078080318CC
:10012800780A85000008F9007908C0000130363ED9
:100138008600870120004608F8004508F7000230CD
:100148007707840078080318780A85000008F90002
:10015800FA0176088400850112001E000130F902B8
:100168000030FA3B7A087904031DB028C128C00181
:10017800C00AAA30F7007708B7003730F7007708C9
:10018800F0002000400883315B238031F8007808B4
:100198002000BF00FA284608F8004508F70002309A
:1001A8007707840078080318780A85000008F900A2
:1001B80079082100B1002000450884004608850020
:1001C8000008F70077082100B00020004608F80072
:1001D8004508F70003307707840078080318780A81
:1001E80085000008F90079082100BB002000B5014E
:1001F800B50A08002000B1012E08FB00FC017B08AD
:10020800F0007C08F1000630F2000030F300843181
:100218004B248031700820005A07C70071085B3DE5
:10022800C8004808FC004708FB0004307B0784002E
:100238007C0803187C0A8500120003193A2948082B
:10024800FC004708FB0005307B0784007C08031886
:100258007C0A85000008FD007D08F6004708840038
:100268004808850000088031472080310130FB00B4
:100278007B082000AE0765082E020318AE012E0881
:10028800FB00FC017B08F0007C08F1000630F2005E
:100298000030F30084314B248031700820005A0765
:1002A800C70071085B3DC8004808FC004708FB0010
:1002B80004307B0784007C0803187C0A8500120040
:1002C80003193A294808FC004708FB0004307B075B
:1002D80084007C0803187C0A85000008FD007D085E
:1002E800B4000800F1007108F0007008F200F21C78
:1002F8007F29013080290030F000721C85290130E7
:1003080086290030700603198B2972178C297213FD
:10031800721D9029013091290030F000721F962932
:10032800013097290030700603199C2972179D29FE
:100338007213721EA1290130A2290030F000721F29
:10034800A7290130A829003070060319AD297217B2
:10035800AE297213F21DB2290130B3290030F00022
:10036800F21CB8290130B929003070060319BE29DA
:10037800F217BF29F213721EC3290130C4290030B5
:10038800F000F21FC9290130CA290030700603198C
:10039800CF29F217D029F213F21ED4290130D5291A
:1003A8000030F000F21FDA290130DB290030700636
:1003B8000319E029F217E129F2130310F21F0314BD
:1003C800031CE829F217E929F213720808004A2ADF
:1003D80020003503031D0800B50185317F258131D3
:1003E80083310323813100302000CB00CC000B3057
:1003F800CD000030CE003630843130242000B001EA
:10040800B00A08002100111A080023009E1C0800E9
:100418002100310803191C2A3B0885310A2581313E
:1004280085317A2502302000D6005608B000080031
:100438002000B00108003308031D2E2AB001003047
:10044800CB00CC000C30CD000030CE00B030843171
:100458003024080085319B258131003A03190800B2
:100468008231D3228131013A031D080085317F256D
:1004780003302000D6005608B00008005D088A0046
:100488005C080A0082312000B00108002000300812
:10049800003A0319EC29013A0319062A033A031909
:1004A8001F2A013A0319422A592A080021009112E9
:1004B8009D302000CB000230CC0085316F25823181
:1004C8002100111213302000CB000430CC008531FC
:1004D80069258231083023009F0090309D00243028
:1004E8009E00CF309B009C01A3302000CB0005303C
:1004F800CC0085313C25823194302000CB0005307A
:10050800CC008531332582319E302000CB00053068
:10051800CC00853145252000A801AD01AC0108308B
:10052800CD004D08E200AB01AA01A90121009116F6
:10053800080020002B08203E860087018101230047
:100548001D1DB22A20002B08203E86008701811439
:10055800210052088A0051080A00823123009D1C9C
:10056800C12A20002B08203E8600870101152100A2
:1005780050088A004F080A00823120002B08203ECC
:100588008600870101080319D02A21004E088A0035
:100598004D080A008231080084317D2408002100BA
:1005A800310820002F020318EB2A8331852382317A
:1005B8002000D1002F08023EB03E86008701510876
:1005C80081000130D1005108AF070000012B200045
:1005D800AF01B230D1005108CB002100310883317E
:1005E800302382312000D2008331852382312000DC
:1005F8005206031D012B0130080000300800853128
:100608009825833100308331D123833155308331AC
:10061800D1238331200036088331D123833121004F
:100628003108031D08002000CE0140084E020318BF
:100638002C2B4E08013E363E860087010108833187
:10064800D123833101302000CD004D08CE07192B6E
:100658003F088331D12308002000CD00CF01D0010D
:10066800CE014D084E020318572B4B088600870110
:1006780001084F07CF0050080318500AD000013076
:10068800CC004C08CB0701305002003003194F0250
:10069800031C522BFF30CF020030D03B0130CC007E
:1006A8004C08CE07352BCF09D0094F080800F200B7
:1006B800F401F501F301720873020318812B700825
:1006C8008600870101087407F40075080318750A85
:1006D800F5000130F1007108F007013075020030B3
:1006E80003197402031C7C2BFF30F4020030F53B25
:1006F8000130F1007108F3075F2BF409F50974085C
:1007080008002000CC0129080319872B2A08203E5D
:10071800860087010108CB004B08A8002A08A03EE4
:10072800860087010108CB004B08CC000130CB00C4
:100738004B08AA0708302A020318AA0121009112BF
:1007480001302000A9022100911620004C08080061
:100758002000D300210030083F392000D200520881
:10076800D4005308860087010230B03E840085011A
:1007780008302000D20012001E00D20BBF2B003020
:100788002000CB00CC000C30CD000030CE00B030C3
:10079800843130242000540808002000CC0062086E
:1007A8000319D32B2100111ADE2B20004C0823003B
:1007B8009A00F22B111220004C08CB002D08A83EFD
:1007C800860087014B0881000130CB004B08AD073C
:1007D80008302D020318AD010130E2022100111684
:1007E800080020003303031D042C0130C900490808
:1007F800B20766083202031C042C85319025833128
:1008080020006403031D08000130C9004908B1072E
:1008180034083102031C08008031FE20080008302B
:100828002000620203182D2C2C08A83E86008701A0
:10083800010823009A000130F00070082000AC077E
:1008480008302C020318AC010130F0007008E207F0
:1008580008002100111208002000D1005108CF0023
:100868004F08D0000130CD020030CE3B4D0A0319AD
:100878004E0A031908004B08CF005008860087016C
:100888004F0881000130CF004F08D007362CF40103
:10089800F501701C532C7208F4077308F53D0130FC
:1008A800F235F30D890B542C0130F136F00C890B1D
:1008B800592C70087104031D4D2C7508F10074083B
:1008C800F00008002000D2004E08DB004D08DA00D6
:1008D8005208D1005108E5005008DD004F08DC003F
:1008E80085318825843185314E25843185318C25A3
:1008F800080023001908F00020002B08A03E8600FD
:100908008701700881000130F0007008AB070830DB
:100918002B020318AB010130F0007008A90708008A
:1009280022008C018E013F3021008C003F308E0068
:100938000F3023008E0017308C0024008C018E01AC
:100948002100951722009D019E010800210015082D
:10095800C039123895000630200095000630CD00C9
:100968004D08E3000B118B16A230CB000530CC00EC
:10097800853163250800C4308331AC2384312000DD
:10098800D50055082100CC004C08003A0319D32C97
:10099800013A0319D32C033A0319D32CD32C08009A
:1009A80000340034013400346434423401340034F7
:1009B80001340034143441340234013408346434CA
:1009C8000034BC348431F82484318B170B17FF3082
:1009D8002000D7005708C100FF30D7005708C100D2
:1009E8008131EB218431EB2C84319424843185319D
:1009F800562584318531842584318431AA24843173
:100A080082315A2284318531262508002000CD0004
:100A18004D08CC004C08E6000030853175250000F3
:100A28002000B301B30A08000B11200063089500E9
:100A3800580859040319080059088A0058080A0078
:100A480085310800D4302000CD008430CE00BF307E
:100A5800CF000430D0000330843166240800200021
:100A68004C082100D00020004B082100CF000800CE
:100A780020004C082100D20020004B082100D100A2
:100A8800080020004C082100CE0020004B0821005F
:100A9800CD000800F5302000CB000330CC008531B4
:100AA8006325080070302100990098012200960102
:100AB8000800640080010131890B5E2D003420009C
:100AC8004C08D9004B08D800080020004C08E10069
:100AD8004B08E000080020004C08DF004B08DE004F
:100AE80008002000CB004B089500080023001D16C5
:100AF80021009116080023001D1221009112080000
:100B080016302100970008002000B201B301080048
:100B18002000E401E40A08002000B201B301080043
:100B280023001D121D16080023009E150800200032
:100B38002908080084317D2408000A3408000800C8
:020000040001F9
:04000E00E4FFFFFE0E
:00000001FF
